{
    "abi": [
        {
            "type": "constructor",
            "inputs": [
                {
                    "name": "_flashBorrowerAddress",
                    "type": "address",
                    "internalType": "address"
                },
                {
                    "name": "_flashLoanVaultAddress",
                    "type": "address",
                    "internalType": "address"
                }
            ],
            "stateMutability": "nonpayable"
        },
        {
            "type": "receive",
            "stateMutability": "payable"
        },
        {
            "type": "function",
            "name": "callFlashLoanHandler",
            "inputs": [
                {
                    "name": "msgId",
                    "type": "tuple",
                    "internalType": "struct Identifier",
                    "components": [
                        {
                            "name": "origin",
                            "type": "address",
                            "internalType": "address"
                        },
                        {
                            "name": "blockNumber",
                            "type": "uint256",
                            "internalType": "uint256"
                        },
                        {
                            "name": "logIndex",
                            "type": "uint256",
                            "internalType": "uint256"
                        },
                        {
                            "name": "timestamp",
                            "type": "uint256",
                            "internalType": "uint256"
                        },
                        {
                            "name": "chainId",
                            "type": "uint256",
                            "internalType": "uint256"
                        }
                    ]
                },
                {
                    "name": "msgData",
                    "type": "bytes",
                    "internalType": "bytes"
                },
                {
                    "name": "destinationChain",
                    "type": "uint256",
                    "internalType": "uint256"
                }
            ],
            "outputs": [],
            "stateMutability": "nonpayable"
        },
        {
            "type": "function",
            "name": "callFlashLoanHandlerAdvanced",
            "inputs": [
                {
                    "name": "destinationChain",
                    "type": "uint256",
                    "internalType": "uint256"
                },
                {
                    "name": "flashBorrowerAddress",
                    "type": "address",
                    "internalType": "address"
                }
            ],
            "outputs": [],
            "stateMutability": "nonpayable"
        },
        {
            "type": "function",
            "name": "callFlashLoanHandlerSimple",
            "inputs": [
                {
                    "name": "destinationChain",
                    "type": "uint256",
                    "internalType": "uint256"
                }
            ],
            "outputs": [],
            "stateMutability": "nonpayable"
        },
        {
            "type": "function",
            "name": "callOnFlashLoan",
            "inputs": [
                {
                    "name": "flashLoanId",
                    "type": "bytes32",
                    "internalType": "bytes32"
                },
                {
                    "name": "caller",
                    "type": "address",
                    "internalType": "address"
                },
                {
                    "name": "flashBorrower",
                    "type": "address",
                    "internalType": "address payable"
                }
            ],
            "outputs": [],
            "stateMutability": "nonpayable"
        },
        {
            "type": "function",
            "name": "initFlashLoan",
            "inputs": [
                {
                    "name": "destinationChain",
                    "type": "uint256",
                    "internalType": "uint256"
                },
                {
                    "name": "flashBorrower",
                    "type": "address",
                    "internalType": "address payable"
                },
                {
                    "name": "caller",
                    "type": "address",
                    "internalType": "address"
                }
            ],
            "outputs": [],
            "stateMutability": "nonpayable"
        },
        {
            "type": "function",
            "name": "messenger",
            "inputs": [],
            "outputs": [
                {
                    "name": "",
                    "type": "address",
                    "internalType": "contract IL2ToL2CrossDomainMessenger"
                }
            ],
            "stateMutability": "view"
        },
        {
            "type": "function",
            "name": "recieveEthForArbitrageDestinationChain",
            "inputs": [
                {
                    "name": "sendEthMsgHash",
                    "type": "bytes32",
                    "internalType": "bytes32"
                },
                {
                    "name": "sourceChain",
                    "type": "uint256",
                    "internalType": "uint256"
                },
                {
                    "name": "caller",
                    "type": "address",
                    "internalType": "address"
                },
                {
                    "name": "loanAmount",
                    "type": "uint256",
                    "internalType": "uint256"
                },
                {
                    "name": "flashLoanId",
                    "type": "bytes32",
                    "internalType": "bytes32"
                },
                {
                    "name": "flashBorrower",
                    "type": "address",
                    "internalType": "address payable"
                }
            ],
            "outputs": [],
            "stateMutability": "nonpayable"
        },
        {
            "type": "function",
            "name": "recieveEthForArbitrageSourceChain",
            "inputs": [
                {
                    "name": "destinationChain",
                    "type": "uint256",
                    "internalType": "uint256"
                },
                {
                    "name": "caller",
                    "type": "address",
                    "internalType": "address"
                },
                {
                    "name": "laonAmount",
                    "type": "uint256",
                    "internalType": "uint256"
                },
                {
                    "name": "flashLoanId",
                    "type": "bytes32",
                    "internalType": "bytes32"
                },
                {
                    "name": "flashBorrower",
                    "type": "address",
                    "internalType": "address payable"
                }
            ],
            "outputs": [],
            "stateMutability": "payable"
        },
        {
            "type": "function",
            "name": "recieveEthOnSourceChainFromDestinationChain",
            "inputs": [
                {
                    "name": "sendEthMsgHash",
                    "type": "bytes32",
                    "internalType": "bytes32"
                },
                {
                    "name": "caller",
                    "type": "address",
                    "internalType": "address"
                },
                {
                    "name": "loanAmount",
                    "type": "uint256",
                    "internalType": "uint256"
                },
                {
                    "name": "flashLoanId",
                    "type": "bytes32",
                    "internalType": "bytes32"
                }
            ],
            "outputs": [],
            "stateMutability": "nonpayable"
        },
        {
            "type": "event",
            "name": "boughtEth",
            "inputs": [
                {
                    "name": "flashLoanId",
                    "type": "bytes32",
                    "indexed": true,
                    "internalType": "bytes32"
                },
                {
                    "name": "ethAmount",
                    "type": "uint256",
                    "indexed": false,
                    "internalType": "uint256"
                },
                {
                    "name": "chainid",
                    "type": "uint256",
                    "indexed": false,
                    "internalType": "uint256"
                },
                {
                    "name": "user",
                    "type": "address",
                    "indexed": true,
                    "internalType": "address"
                }
            ],
            "anonymous": false
        },
        {
            "type": "event",
            "name": "flashLoanRecieved",
            "inputs": [
                {
                    "name": "flashLoanId",
                    "type": "bytes32",
                    "indexed": true,
                    "internalType": "bytes32"
                },
                {
                    "name": "ethAmount",
                    "type": "uint256",
                    "indexed": false,
                    "internalType": "uint256"
                },
                {
                    "name": "chainid",
                    "type": "uint256",
                    "indexed": false,
                    "internalType": "uint256"
                },
                {
                    "name": "user",
                    "type": "address",
                    "indexed": true,
                    "internalType": "address"
                }
            ],
            "anonymous": false
        },
        {
            "type": "event",
            "name": "flashLoanRepayed",
            "inputs": [
                {
                    "name": "flashLoanId",
                    "type": "bytes32",
                    "indexed": true,
                    "internalType": "bytes32"
                },
                {
                    "name": "ethAmount",
                    "type": "uint256",
                    "indexed": false,
                    "internalType": "uint256"
                },
                {
                    "name": "chainid",
                    "type": "uint256",
                    "indexed": false,
                    "internalType": "uint256"
                },
                {
                    "name": "user",
                    "type": "address",
                    "indexed": true,
                    "internalType": "address"
                }
            ],
            "anonymous": false
        },
        {
            "type": "event",
            "name": "noProfit",
            "inputs": [
                {
                    "name": "flashLoanId",
                    "type": "bytes32",
                    "indexed": true,
                    "internalType": "bytes32"
                },
                {
                    "name": "chainid",
                    "type": "uint256",
                    "indexed": false,
                    "internalType": "uint256"
                },
                {
                    "name": "user",
                    "type": "address",
                    "indexed": true,
                    "internalType": "address"
                }
            ],
            "anonymous": false
        },
        {
            "type": "event",
            "name": "sentProfit",
            "inputs": [
                {
                    "name": "flashLoanId",
                    "type": "bytes32",
                    "indexed": true,
                    "internalType": "bytes32"
                },
                {
                    "name": "ethAmount",
                    "type": "uint256",
                    "indexed": false,
                    "internalType": "uint256"
                },
                {
                    "name": "chainid",
                    "type": "uint256",
                    "indexed": false,
                    "internalType": "uint256"
                },
                {
                    "name": "user",
                    "type": "address",
                    "indexed": true,
                    "internalType": "address"
                }
            ],
            "anonymous": false
        },
        {
            "type": "event",
            "name": "soldEth",
            "inputs": [
                {
                    "name": "flashLoanId",
                    "type": "bytes32",
                    "indexed": true,
                    "internalType": "bytes32"
                },
                {
                    "name": "ethAmount",
                    "type": "uint256",
                    "indexed": false,
                    "internalType": "uint256"
                },
                {
                    "name": "chainid",
                    "type": "uint256",
                    "indexed": false,
                    "internalType": "uint256"
                },
                {
                    "name": "user",
                    "type": "address",
                    "indexed": true,
                    "internalType": "address"
                }
            ],
            "anonymous": false
        },
        {
            "type": "error",
            "name": "CallerNotL2toL2CrossDomainMessenger",
            "inputs": []
        },
        {
            "type": "error",
            "name": "IdOriginNotFlashLoanHandler",
            "inputs": []
        },
        {
            "type": "error",
            "name": "InvalidCrossDomainSender",
            "inputs": []
        },
        {
            "type": "error",
            "name": "RequiredMessageNotSuccessful",
            "inputs": [
                {
                    "name": "msgHash",
                    "type": "bytes32",
                    "internalType": "bytes32"
                }
            ]
        }
    ],
    "bytecode": {
        "object": "0x608060405273420000000000000000000000000000000000002460015f6101000a81548173ffffffffffffffffffffffffffffffffffffffff021916908373ffffffffffffffffffffffffffffffffffffffff16021790555060015f9054906101000a900473ffffffffffffffffffffffffffffffffffffffff1660025f6101000a81548173ffffffffffffffffffffffffffffffffffffffff021916908373ffffffffffffffffffffffffffffffffffffffff1602179055503480156100c4575f5ffd5b5060405161210538038061210583398181016040528101906100e6919061022b565b8060035f6101000a81548173ffffffffffffffffffffffffffffffffffffffff021916908373ffffffffffffffffffffffffffffffffffffffff16021790555060035f9054906101000a900473ffffffffffffffffffffffffffffffffffffffff1660045f6101000a81548173ffffffffffffffffffffffffffffffffffffffff021916908373ffffffffffffffffffffffffffffffffffffffff160217905550815f5f6101000a81548173ffffffffffffffffffffffffffffffffffffffff021916908373ffffffffffffffffffffffffffffffffffffffff1602179055505050610269565b5f5ffd5b5f73ffffffffffffffffffffffffffffffffffffffff82169050919050565b5f6101fa826101d1565b9050919050565b61020a816101f0565b8114610214575f5ffd5b50565b5f8151905061022581610201565b92915050565b5f5f60408385031215610241576102406101cd565b5b5f61024e85828601610217565b925050602061025f85828601610217565b9150509250929050565b611e8f806102765f395ff3fe608060405260043610610089575f3560e01c80638b46f80b116100585780638b46f80b1461012a5780638e7616f0146101525780639191cb7d1461017a578063cb74bef2146101a2578063f4a905f1146101ca57610090565b8063345aa744146100945780633cb747bf146100bc5780634c77788b146100e6578063542871421461010e57610090565b3661009057005b5f5ffd5b34801561009f575f5ffd5b506100ba60048036038101906100b591906111e8565b6101f2565b005b3480156100c7575f5ffd5b506100d0610385565b6040516100dd9190611293565b60405180910390f35b3480156100f1575f5ffd5b5061010c600480360381019061010791906112df565b61039d565b005b6101286004803603810190610123919061130a565b61042a565b005b348015610135575f5ffd5b50610150600480360381019061014b9190611381565b6105e4565b005b34801561015d575f5ffd5b50610178600480360381019061017391906113d1565b6107ac565b005b348015610185575f5ffd5b506101a0600480360381019061019b919061140f565b61081a565b005b3480156101ad575f5ffd5b506101c860048036038101906101c39190611473565b610b05565b005b3480156101d5575f5ffd5b506101f060048036038101906101eb919061157f565b610b90565b005b5f4790508173ffffffffffffffffffffffffffffffffffffffff1663776678808283306040518463ffffffff1660e01b815260040161023292919061160e565b5f604051808303818588803b158015610249575f5ffd5b505af19350505050801561025b575060015b61029a576040517f08c379a00000000000000000000000000000000000000000000000000000000081526004016102919061168f565b60405180910390fd5b8273ffffffffffffffffffffffffffffffffffffffff16847f512e2d330a931d7c859d83a4f800894d328188adacb84ac49f81a51cecaf3b9c47466040516102e39291906116ad565b60405180910390a38047101561032e576040517f08c379a000000000000000000000000000000000000000000000000000000000815260040161032590611744565b60405180910390fd5b8273ffffffffffffffffffffffffffffffffffffffff16847f1fe21ec672fe386a198ac3f6311f71a3edd1c83a50750fed3d17518de5e643d347466040516103779291906116ad565b60405180910390a350505050565b73420000000000000000000000000000000000002381565b3073ffffffffffffffffffffffffffffffffffffffff16638b46f80b825f5f9054906101000a900473ffffffffffffffffffffffffffffffffffffffff16336040518463ffffffff1660e01b81526004016103fa93929190611771565b5f604051808303815f87803b158015610411575f5ffd5b505af1158015610423573d5f5f3e3d5ffd5b5050505050565b5f60025f9054906101000a900473ffffffffffffffffffffffffffffffffffffffff1673ffffffffffffffffffffffffffffffffffffffff166364a197f34730896040518463ffffffff1660e01b81526004016104889291906117a6565b60206040518083038185885af11580156104a4573d5f5f3e3d5ffd5b50505050506040513d601f19601f820116820180604052508101906104c991906117e1565b905073420000000000000000000000000000000000002373ffffffffffffffffffffffffffffffffffffffff16637056f41f873063cb74bef260e01b85468b8b8b8b6040516024016105209695949392919061181b565b604051602081830303815290604052907bffffffffffffffffffffffffffffffffffffffffffffffffffffffff19166020820180517bffffffffffffffffffffffffffffffffffffffffffffffffffffffff83818316178352505050506040518463ffffffff1660e01b815260040161059b939291906118ea565b6020604051808303815f875af11580156105b7573d5f5f3e3d5ffd5b505050506040513d601f19601f820116820180604052508101906105db91906117e1565b50505050505050565b468303610626576040517f08c379a000000000000000000000000000000000000000000000000000000000815260040161061d90611996565b60405180910390fd5b5f60045f9054906101000a900473ffffffffffffffffffffffffffffffffffffffff1673ffffffffffffffffffffffffffffffffffffffff1663a34d9b6e6040518163ffffffff1660e01b81526004016020604051808303815f875af1158015610692573d5f5f3e3d5ffd5b505050506040513d601f19601f820116820180604052508101906106b691906119c8565b90505f8183436040516020016106ce93929190611a58565b6040516020818303038152906040528051906020012090508273ffffffffffffffffffffffffffffffffffffffff16817f87d88a738ca09165c444ae5ef08ddbe1e06124960105ebf8cc54a58da1ce02d0844660405161072f9291906116ad565b60405180910390a33073ffffffffffffffffffffffffffffffffffffffff16635428714286858585896040518663ffffffff1660e01b8152600401610778959493929190611a94565b5f604051808303815f87803b15801561078f575f5ffd5b505af11580156107a1573d5f5f3e3d5ffd5b505050505050505050565b3073ffffffffffffffffffffffffffffffffffffffff16638b46f80b8383336040518463ffffffff1660e01b81526004016107e993929190611771565b5f604051808303815f87803b158015610800575f5ffd5b505af1158015610812573d5f5f3e3d5ffd5b505050505050565b610822610d29565b61082b84610e18565b5f82476108389190611b1b565b90505f8113156109d65760035f9054906101000a900473ffffffffffffffffffffffffffffffffffffffff1673ffffffffffffffffffffffffffffffffffffffff168360405161088790611b88565b5f6040518083038185875af1925050503d805f81146108c1576040519150601f19603f3d011682016040523d82523d5f602084013e6108c6565b606091505b5050508373ffffffffffffffffffffffffffffffffffffffff16827fdbe988a66851b7ca333fa0154cee8d34b23a7a4940b594546f781103f414722585466040516109129291906116ad565b60405180910390a38373ffffffffffffffffffffffffffffffffffffffff164760405161093e90611b88565b5f6040518083038185875af1925050503d805f8114610978576040519150601f19603f3d011682016040523d82523d5f602084013e61097d565b606091505b5050508373ffffffffffffffffffffffffffffffffffffffff16827fd67deaf82c5b8a98aadb9bb97a2470366263e8ab6d91dc5de25ff6a89150e00683466040516109c99291906116ad565b60405180910390a3610afe565b60035f9054906101000a900473ffffffffffffffffffffffffffffffffffffffff1673ffffffffffffffffffffffffffffffffffffffff1647604051610a1b90611b88565b5f6040518083038185875af1925050503d805f8114610a55576040519150601f19603f3d011682016040523d82523d5f602084013e610a5a565b606091505b5050508373ffffffffffffffffffffffffffffffffffffffff16827fdbe988a66851b7ca333fa0154cee8d34b23a7a4940b594546f781103f41472258546604051610aa69291906116ad565b60405180910390a38373ffffffffffffffffffffffffffffffffffffffff16827f2ec2c4fcdf3e0f680caa141ee4dfa020b3bed8ec4f7ad013a4fce686176982bf46604051610af59190611b9c565b60405180910390a35b5050505050565b610b0d610d29565b610b1686610e18565b3073ffffffffffffffffffffffffffffffffffffffff1663345aa7448386846040518463ffffffff1660e01b8152600401610b5393929190611bb5565b5f604051808303815f87803b158015610b6a575f5ffd5b505af1925050508015610b7b575060015b50610b8885858585610ee8565b505050505050565b3073ffffffffffffffffffffffffffffffffffffffff16845f016020810190610bb99190611bea565b73ffffffffffffffffffffffffffffffffffffffff1614610c06576040517fadfda1a800000000000000000000000000000000000000000000000000000000815260040160405180910390fd5b73420000000000000000000000000000000000002273ffffffffffffffffffffffffffffffffffffffff1663ab4d6f75858585604051610c47929190611c47565b60405180910390206040518363ffffffff1660e01b8152600401610c6c929190611d37565b5f604051808303815f87803b158015610c83575f5ffd5b505af1158015610c95573d5f5f3e3d5ffd5b505050503073ffffffffffffffffffffffffffffffffffffffff16638b46f80b825f5f9054906101000a900473ffffffffffffffffffffffffffffffffffffffff16336040518463ffffffff1660e01b8152600401610cf693929190611771565b5f604051808303815f87803b158015610d0d575f5ffd5b505af1158015610d1f573d5f5f3e3d5ffd5b5050505050505050565b610d3161109d565b3073ffffffffffffffffffffffffffffffffffffffff1673420000000000000000000000000000000000002373ffffffffffffffffffffffffffffffffffffffff166338ffde186040518163ffffffff1660e01b8152600401602060405180830381865afa158015610da5573d5f5f3e3d5ffd5b505050506040513d601f19601f82011682018060405250810190610dc99190611d72565b73ffffffffffffffffffffffffffffffffffffffff1614610e16576040517fbc22e2aa00000000000000000000000000000000000000000000000000000000815260040160405180910390fd5b565b73420000000000000000000000000000000000002373ffffffffffffffffffffffffffffffffffffffff1663b1b1b209826040518263ffffffff1660e01b8152600401610e659190611d9d565b602060405180830381865afa158015610e80573d5f5f3e3d5ffd5b505050506040513d601f19601f82011682018060405250810190610ea49190611deb565b610ee557806040517f5e38ca86000000000000000000000000000000000000000000000000000000008152600401610edc9190611d9d565b60405180910390fd5b50565b5f60025f9054906101000a900473ffffffffffffffffffffffffffffffffffffffff1673ffffffffffffffffffffffffffffffffffffffff166364a197f34730886040518463ffffffff1660e01b8152600401610f469291906117a6565b60206040518083038185885af1158015610f62573d5f5f3e3d5ffd5b50505050506040513d601f19601f82011682018060405250810190610f8791906117e1565b905073420000000000000000000000000000000000002373ffffffffffffffffffffffffffffffffffffffff16637056f41f8630639191cb7d60e01b85898989604051602401610fda9493929190611e16565b604051602081830303815290604052907bffffffffffffffffffffffffffffffffffffffffffffffffffffffff19166020820180517bffffffffffffffffffffffffffffffffffffffffffffffffffffffff83818316178352505050506040518463ffffffff1660e01b8152600401611055939291906118ea565b6020604051808303815f875af1158015611071573d5f5f3e3d5ffd5b505050506040513d601f19601f8201168201806040525081019061109591906117e1565b505050505050565b73420000000000000000000000000000000000002373ffffffffffffffffffffffffffffffffffffffff163373ffffffffffffffffffffffffffffffffffffffff1614611116576040517f1a861d2c00000000000000000000000000000000000000000000000000000000815260040160405180910390fd5b565b5f5ffd5b5f5ffd5b5f819050919050565b61113281611120565b811461113c575f5ffd5b50565b5f8135905061114d81611129565b92915050565b5f73ffffffffffffffffffffffffffffffffffffffff82169050919050565b5f61117c82611153565b9050919050565b61118c81611172565b8114611196575f5ffd5b50565b5f813590506111a781611183565b92915050565b5f6111b782611153565b9050919050565b6111c7816111ad565b81146111d1575f5ffd5b50565b5f813590506111e2816111be565b92915050565b5f5f5f606084860312156111ff576111fe611118565b5b5f61120c8682870161113f565b935050602061121d86828701611199565b925050604061122e868287016111d4565b9150509250925092565b5f819050919050565b5f61125b61125661125184611153565b611238565b611153565b9050919050565b5f61126c82611241565b9050919050565b5f61127d82611262565b9050919050565b61128d81611273565b82525050565b5f6020820190506112a65f830184611284565b92915050565b5f819050919050565b6112be816112ac565b81146112c8575f5ffd5b50565b5f813590506112d9816112b5565b92915050565b5f602082840312156112f4576112f3611118565b5b5f611301848285016112cb565b91505092915050565b5f5f5f5f5f60a0868803121561132357611322611118565b5b5f611330888289016112cb565b955050602061134188828901611199565b9450506040611352888289016112cb565b93505060606113638882890161113f565b9250506080611374888289016111d4565b9150509295509295909350565b5f5f5f6060848603121561139857611397611118565b5b5f6113a5868287016112cb565b93505060206113b6868287016111d4565b92505060406113c786828701611199565b9150509250925092565b5f5f604083850312156113e7576113e6611118565b5b5f6113f4858286016112cb565b925050602061140585828601611199565b9150509250929050565b5f5f5f5f6080858703121561142757611426611118565b5b5f6114348782880161113f565b945050602061144587828801611199565b9350506040611456878288016112cb565b92505060606114678782880161113f565b91505092959194509250565b5f5f5f5f5f5f60c0878903121561148d5761148c611118565b5b5f61149a89828a0161113f565b96505060206114ab89828a016112cb565b95505060406114bc89828a01611199565b94505060606114cd89828a016112cb565b93505060806114de89828a0161113f565b92505060a06114ef89828a016111d4565b9150509295509295509295565b5f5ffd5b5f60a08284031215611515576115146114fc565b5b81905092915050565b5f5ffd5b5f5ffd5b5f5ffd5b5f5f83601f84011261153f5761153e61151e565b5b8235905067ffffffffffffffff81111561155c5761155b611522565b5b60208301915083600182028301111561157857611577611526565b5b9250929050565b5f5f5f5f60e0858703121561159757611596611118565b5b5f6115a487828801611500565b94505060a085013567ffffffffffffffff8111156115c5576115c461111c565b5b6115d18782880161152a565b935093505060c06115e4878288016112cb565b91505092959194509250565b6115f9816112ac565b82525050565b61160881611172565b82525050565b5f6040820190506116215f8301856115f0565b61162e60208301846115ff565b9392505050565b5f82825260208201905092915050565b7f6f6e466c6173684c6f616e2046756e6374696f6e204661696c656400000000005f82015250565b5f611679601b83611635565b915061168482611645565b602082019050919050565b5f6020820190508181035f8301526116a68161166d565b9050919050565b5f6040820190506116c05f8301856115f0565b6116cd60208301846115f0565b9392505050565b7f53756666696369656e742046756e64732057657265204e6f742052657475726e5f8201527f6564000000000000000000000000000000000000000000000000000000000000602082015250565b5f61172e602283611635565b9150611739826116d4565b604082019050919050565b5f6020820190508181035f83015261175b81611722565b9050919050565b61176b816111ad565b82525050565b5f6060820190506117845f8301866115f0565b6117916020830185611762565b61179e60408301846115ff565b949350505050565b5f6040820190506117b95f8301856115ff565b6117c660208301846115f0565b9392505050565b5f815190506117db81611129565b92915050565b5f602082840312156117f6576117f5611118565b5b5f611803848285016117cd565b91505092915050565b61181581611120565b82525050565b5f60c08201905061182e5f83018961180c565b61183b60208301886115f0565b61184860408301876115ff565b61185560608301866115f0565b611862608083018561180c565b61186f60a0830184611762565b979650505050505050565b5f81519050919050565b5f82825260208201905092915050565b8281835e5f83830152505050565b5f601f19601f8301169050919050565b5f6118bc8261187a565b6118c68185611884565b93506118d6818560208601611894565b6118df816118a2565b840191505092915050565b5f6060820190506118fd5f8301866115f0565b61190a60208301856115ff565b818103604083015261191c81846118b2565b9050949350505050565b7f44657374696e6174696f6e20436861696e2043616e6e6f742042652053616d655f8201527f20417320536f7572636520436861696e00000000000000000000000000000000602082015250565b5f611980603083611635565b915061198b82611926565b604082019050919050565b5f6020820190508181035f8301526119ad81611974565b9050919050565b5f815190506119c2816112b5565b92915050565b5f602082840312156119dd576119dc611118565b5b5f6119ea848285016119b4565b91505092915050565b5f819050919050565b611a0d611a08826112ac565b6119f3565b82525050565b5f8160601b9050919050565b5f611a2982611a13565b9050919050565b5f611a3a82611a1f565b9050919050565b611a52611a4d82611172565b611a30565b82525050565b5f611a6382866119fc565b602082019150611a738285611a41565b601482019150611a8382846119fc565b602082019150819050949350505050565b5f60a082019050611aa75f8301886115f0565b611ab460208301876115ff565b611ac160408301866115f0565b611ace606083018561180c565b611adb6080830184611762565b9695505050505050565b5f819050919050565b7f4e487b71000000000000000000000000000000000000000000000000000000005f52601160045260245ffd5b5f611b2582611ae5565b9150611b3083611ae5565b925082820390508181125f8412168282135f851215161715611b5557611b54611aee565b5b92915050565b5f81905092915050565b50565b5f611b735f83611b5b565b9150611b7e82611b65565b5f82019050919050565b5f611b9282611b68565b9150819050919050565b5f602082019050611baf5f8301846115f0565b92915050565b5f606082019050611bc85f83018661180c565b611bd560208301856115ff565b611be26040830184611762565b949350505050565b5f60208284031215611bff57611bfe611118565b5b5f611c0c84828501611199565b91505092915050565b828183375f83830152505050565b5f611c2e8385611b5b565b9350611c3b838584611c15565b82840190509392505050565b5f611c53828486611c23565b91508190509392505050565b5f611c6d6020840184611199565b905092915050565b611c7e81611172565b82525050565b5f611c9260208401846112cb565b905092915050565b611ca3816112ac565b82525050565b60a08201611cb95f830183611c5f565b611cc55f850182611c75565b50611cd36020830183611c84565b611ce06020850182611c9a565b50611cee6040830183611c84565b611cfb6040850182611c9a565b50611d096060830183611c84565b611d166060850182611c9a565b50611d246080830183611c84565b611d316080850182611c9a565b50505050565b5f60c082019050611d4a5f830185611ca9565b611d5760a083018461180c565b9392505050565b5f81519050611d6c81611183565b92915050565b5f60208284031215611d8757611d86611118565b5b5f611d9484828501611d5e565b91505092915050565b5f602082019050611db05f83018461180c565b92915050565b5f8115159050919050565b611dca81611db6565b8114611dd4575f5ffd5b50565b5f81519050611de581611dc1565b92915050565b5f60208284031215611e0057611dff611118565b5b5f611e0d84828501611dd7565b91505092915050565b5f608082019050611e295f83018761180c565b611e3660208301866115ff565b611e4360408301856115f0565b611e50606083018461180c565b9594505050505056fea26469706673582212209250e4918c88a1ce949d0f197c9ec8202d78e564e911841f2b02c755a4b7e1e464736f6c634300081c0033",
        "linkReferences": {}
    },
    "methodIdentifiers": {
        "callFlashLoanHandler((address,uint256,uint256,uint256,uint256),bytes,uint256)": "f4a905f1",
        "callFlashLoanHandlerAdvanced(uint256,address)": "8e7616f0",
        "callFlashLoanHandlerSimple(uint256)": "4c77788b",
        "callOnFlashLoan(bytes32,address,address)": "345aa744",
        "initFlashLoan(uint256,address,address)": "8b46f80b",
        "messenger()": "3cb747bf",
        "recieveEthForArbitrageDestinationChain(bytes32,uint256,address,uint256,bytes32,address)": "cb74bef2",
        "recieveEthForArbitrageSourceChain(uint256,address,uint256,bytes32,address)": "54287142",
        "recieveEthOnSourceChainFromDestinationChain(bytes32,address,uint256,bytes32)": "9191cb7d"
    },
    "id": 39
}